{
  "_format": "hh-sol-artifact-1",
  "contractName": "CryptoDevs",
  "sourceName": "contracts/CryptoDevs.sol",
  "abi": [
    {
      "inputs": [
        {
          "internalType": "string",
          "name": "_baseTokenURI",
          "type": "string"
        },
        {
          "internalType": "address",
          "name": "_whitelistContract",
          "type": "address"
        }
      ],
      "stateMutability": "nonpayable",
      "type": "constructor"
    },
    {
      "anonymous": false,
      "inputs": [
        {
          "indexed": true,
          "internalType": "address",
          "name": "owner",
          "type": "address"
        },
        {
          "indexed": true,
          "internalType": "address",
          "name": "approved",
          "type": "address"
        },
        {
          "indexed": true,
          "internalType": "uint256",
          "name": "tokenId",
          "type": "uint256"
        }
      ],
      "name": "Approval",
      "type": "event"
    },
    {
      "anonymous": false,
      "inputs": [
        {
          "indexed": true,
          "internalType": "address",
          "name": "owner",
          "type": "address"
        },
        {
          "indexed": true,
          "internalType": "address",
          "name": "operator",
          "type": "address"
        },
        {
          "indexed": false,
          "internalType": "bool",
          "name": "approved",
          "type": "bool"
        }
      ],
      "name": "ApprovalForAll",
      "type": "event"
    },
    {
      "anonymous": false,
      "inputs": [
        {
          "indexed": true,
          "internalType": "address",
          "name": "previousOwner",
          "type": "address"
        },
        {
          "indexed": true,
          "internalType": "address",
          "name": "newOwner",
          "type": "address"
        }
      ],
      "name": "OwnershipTransferred",
      "type": "event"
    },
    {
      "anonymous": false,
      "inputs": [
        {
          "indexed": true,
          "internalType": "address",
          "name": "from",
          "type": "address"
        },
        {
          "indexed": true,
          "internalType": "address",
          "name": "to",
          "type": "address"
        },
        {
          "indexed": true,
          "internalType": "uint256",
          "name": "tokenId",
          "type": "uint256"
        }
      ],
      "name": "Transfer",
      "type": "event"
    },
    {
      "stateMutability": "payable",
      "type": "fallback"
    },
    {
      "inputs": [
        {
          "internalType": "address",
          "name": "to",
          "type": "address"
        },
        {
          "internalType": "uint256",
          "name": "tokenId",
          "type": "uint256"
        }
      ],
      "name": "approve",
      "outputs": [],
      "stateMutability": "nonpayable",
      "type": "function"
    },
    {
      "inputs": [
        {
          "internalType": "address",
          "name": "owner",
          "type": "address"
        }
      ],
      "name": "balanceOf",
      "outputs": [
        {
          "internalType": "uint256",
          "name": "",
          "type": "uint256"
        }
      ],
      "stateMutability": "view",
      "type": "function"
    },
    {
      "inputs": [
        {
          "internalType": "uint256",
          "name": "tokenId",
          "type": "uint256"
        }
      ],
      "name": "getApproved",
      "outputs": [
        {
          "internalType": "address",
          "name": "",
          "type": "address"
        }
      ],
      "stateMutability": "view",
      "type": "function"
    },
    {
      "inputs": [],
      "name": "getTotalTokenIdsMinted",
      "outputs": [
        {
          "internalType": "uint256",
          "name": "",
          "type": "uint256"
        }
      ],
      "stateMutability": "view",
      "type": "function"
    },
    {
      "inputs": [
        {
          "internalType": "address",
          "name": "owner",
          "type": "address"
        },
        {
          "internalType": "address",
          "name": "operator",
          "type": "address"
        }
      ],
      "name": "isApprovedForAll",
      "outputs": [
        {
          "internalType": "bool",
          "name": "",
          "type": "bool"
        }
      ],
      "stateMutability": "view",
      "type": "function"
    },
    {
      "inputs": [],
      "name": "isPresaleEnded",
      "outputs": [
        {
          "internalType": "bool",
          "name": "",
          "type": "bool"
        }
      ],
      "stateMutability": "view",
      "type": "function"
    },
    {
      "inputs": [],
      "name": "isPresaleStarted",
      "outputs": [
        {
          "internalType": "bool",
          "name": "",
          "type": "bool"
        }
      ],
      "stateMutability": "view",
      "type": "function"
    },
    {
      "inputs": [],
      "name": "name",
      "outputs": [
        {
          "internalType": "string",
          "name": "",
          "type": "string"
        }
      ],
      "stateMutability": "view",
      "type": "function"
    },
    {
      "inputs": [],
      "name": "owner",
      "outputs": [
        {
          "internalType": "address",
          "name": "",
          "type": "address"
        }
      ],
      "stateMutability": "view",
      "type": "function"
    },
    {
      "inputs": [
        {
          "internalType": "uint256",
          "name": "tokenId",
          "type": "uint256"
        }
      ],
      "name": "ownerOf",
      "outputs": [
        {
          "internalType": "address",
          "name": "",
          "type": "address"
        }
      ],
      "stateMutability": "view",
      "type": "function"
    },
    {
      "inputs": [],
      "name": "postsaleMint",
      "outputs": [],
      "stateMutability": "payable",
      "type": "function"
    },
    {
      "inputs": [],
      "name": "presaleMint",
      "outputs": [],
      "stateMutability": "payable",
      "type": "function"
    },
    {
      "inputs": [],
      "name": "renounceOwnership",
      "outputs": [],
      "stateMutability": "nonpayable",
      "type": "function"
    },
    {
      "inputs": [
        {
          "internalType": "address",
          "name": "from",
          "type": "address"
        },
        {
          "internalType": "address",
          "name": "to",
          "type": "address"
        },
        {
          "internalType": "uint256",
          "name": "tokenId",
          "type": "uint256"
        }
      ],
      "name": "safeTransferFrom",
      "outputs": [],
      "stateMutability": "nonpayable",
      "type": "function"
    },
    {
      "inputs": [
        {
          "internalType": "address",
          "name": "from",
          "type": "address"
        },
        {
          "internalType": "address",
          "name": "to",
          "type": "address"
        },
        {
          "internalType": "uint256",
          "name": "tokenId",
          "type": "uint256"
        },
        {
          "internalType": "bytes",
          "name": "_data",
          "type": "bytes"
        }
      ],
      "name": "safeTransferFrom",
      "outputs": [],
      "stateMutability": "nonpayable",
      "type": "function"
    },
    {
      "inputs": [
        {
          "internalType": "address",
          "name": "operator",
          "type": "address"
        },
        {
          "internalType": "bool",
          "name": "approved",
          "type": "bool"
        }
      ],
      "name": "setApprovalForAll",
      "outputs": [],
      "stateMutability": "nonpayable",
      "type": "function"
    },
    {
      "inputs": [
        {
          "internalType": "bool",
          "name": "isPaused",
          "type": "bool"
        }
      ],
      "name": "setPaused",
      "outputs": [],
      "stateMutability": "nonpayable",
      "type": "function"
    },
    {
      "inputs": [],
      "name": "startPresale",
      "outputs": [],
      "stateMutability": "nonpayable",
      "type": "function"
    },
    {
      "inputs": [
        {
          "internalType": "bytes4",
          "name": "interfaceId",
          "type": "bytes4"
        }
      ],
      "name": "supportsInterface",
      "outputs": [
        {
          "internalType": "bool",
          "name": "",
          "type": "bool"
        }
      ],
      "stateMutability": "view",
      "type": "function"
    },
    {
      "inputs": [],
      "name": "symbol",
      "outputs": [
        {
          "internalType": "string",
          "name": "",
          "type": "string"
        }
      ],
      "stateMutability": "view",
      "type": "function"
    },
    {
      "inputs": [
        {
          "internalType": "uint256",
          "name": "index",
          "type": "uint256"
        }
      ],
      "name": "tokenByIndex",
      "outputs": [
        {
          "internalType": "uint256",
          "name": "",
          "type": "uint256"
        }
      ],
      "stateMutability": "view",
      "type": "function"
    },
    {
      "inputs": [
        {
          "internalType": "address",
          "name": "owner",
          "type": "address"
        },
        {
          "internalType": "uint256",
          "name": "index",
          "type": "uint256"
        }
      ],
      "name": "tokenOfOwnerByIndex",
      "outputs": [
        {
          "internalType": "uint256",
          "name": "",
          "type": "uint256"
        }
      ],
      "stateMutability": "view",
      "type": "function"
    },
    {
      "inputs": [
        {
          "internalType": "uint256",
          "name": "tokenId",
          "type": "uint256"
        }
      ],
      "name": "tokenURI",
      "outputs": [
        {
          "internalType": "string",
          "name": "",
          "type": "string"
        }
      ],
      "stateMutability": "view",
      "type": "function"
    },
    {
      "inputs": [],
      "name": "totalSupply",
      "outputs": [
        {
          "internalType": "uint256",
          "name": "",
          "type": "uint256"
        }
      ],
      "stateMutability": "view",
      "type": "function"
    },
    {
      "inputs": [
        {
          "internalType": "address",
          "name": "from",
          "type": "address"
        },
        {
          "internalType": "address",
          "name": "to",
          "type": "address"
        },
        {
          "internalType": "uint256",
          "name": "tokenId",
          "type": "uint256"
        }
      ],
      "name": "transferFrom",
      "outputs": [],
      "stateMutability": "nonpayable",
      "type": "function"
    },
    {
      "inputs": [
        {
          "internalType": "address",
          "name": "newOwner",
          "type": "address"
        }
      ],
      "name": "transferOwnership",
      "outputs": [],
      "stateMutability": "nonpayable",
      "type": "function"
    },
    {
      "inputs": [],
      "name": "whitelistContract",
      "outputs": [
        {
          "internalType": "contract IWhitelist",
          "name": "",
          "type": "address"
        }
      ],
      "stateMutability": "view",
      "type": "function"
    },
    {
      "inputs": [],
      "name": "withdraw",
      "outputs": [],
      "stateMutability": "nonpayable",
      "type": "function"
    },
    {
      "stateMutability": "payable",
      "type": "receive"
    }
  ],
  "bytecode": "0x608060405260405180602001604052806000815250600c90805190602001906200002b9291906200029a565b50662386f26fc10000600d556000600e60006101000a81548160ff0219169083151502179055506014600f5560006010556000601160006101000a81548160ff0219169083151502179055503480156200008457600080fd5b50604051620046ad380380620046ad8339818101604052810190620000aa91906200054c565b6040518060400160405280600b81526020017f43727970746f20446576730000000000000000000000000000000000000000008152506040518060400160405280600281526020017f434400000000000000000000000000000000000000000000000000000000000081525081600090805190602001906200012e9291906200029a565b508060019080519060200190620001479291906200029a565b5050506200016a6200015e620001cc60201b60201c565b620001d460201b60201c565b81600c9080519060200190620001829291906200029a565b5080600b60006101000a81548173ffffffffffffffffffffffffffffffffffffffff021916908373ffffffffffffffffffffffffffffffffffffffff160217905550505062000616565b600033905090565b6000600a60009054906101000a900473ffffffffffffffffffffffffffffffffffffffff16905081600a60006101000a81548173ffffffffffffffffffffffffffffffffffffffff021916908373ffffffffffffffffffffffffffffffffffffffff1602179055508173ffffffffffffffffffffffffffffffffffffffff168173ffffffffffffffffffffffffffffffffffffffff167f8be0079c531659141344cd1fd0a4f28419497f9722a3daafe3b4186f6b6457e060405160405180910390a35050565b828054620002a890620005e1565b90600052602060002090601f016020900481019282620002cc576000855562000318565b82601f10620002e757805160ff191683800117855562000318565b8280016001018555821562000318579182015b8281111562000317578251825591602001919060010190620002fa565b5b5090506200032791906200032b565b5090565b5b80821115620003465760008160009055506001016200032c565b5090565b6000604051905090565b600080fd5b600080fd5b600080fd5b600080fd5b6000601f19601f8301169050919050565b7f4e487b7100000000000000000000000000000000000000000000000000000000600052604160045260246000fd5b620003b38262000368565b810181811067ffffffffffffffff82111715620003d557620003d462000379565b5b80604052505050565b6000620003ea6200034a565b9050620003f88282620003a8565b919050565b600067ffffffffffffffff8211156200041b576200041a62000379565b5b620004268262000368565b9050602081019050919050565b60005b838110156200045357808201518184015260208101905062000436565b8381111562000463576000848401525b50505050565b6000620004806200047a84620003fd565b620003de565b9050828152602081018484840111156200049f576200049e62000363565b5b620004ac84828562000433565b509392505050565b600082601f830112620004cc57620004cb6200035e565b5b8151620004de84826020860162000469565b91505092915050565b600073ffffffffffffffffffffffffffffffffffffffff82169050919050565b60006200051482620004e7565b9050919050565b620005268162000507565b81146200053257600080fd5b50565b60008151905062000546816200051b565b92915050565b6000806040838503121562000566576200056562000354565b5b600083015167ffffffffffffffff81111562000587576200058662000359565b5b6200059585828601620004b4565b9250506020620005a88582860162000535565b9150509250929050565b7f4e487b7100000000000000000000000000000000000000000000000000000000600052602260045260246000fd5b60006002820490506001821680620005fa57607f821691505b60208210810362000610576200060f620005b2565b5b50919050565b61408780620006266000396000f3fe6080604052600436106101bb5760003560e01c80636352211e116100ec57806398d6d8ed1161008a578063c87b56dd11610064578063c87b56dd146105ae578063e69a0c88146105eb578063e985e9c514610616578063f2fde38b14610653576101c2565b806398d6d8ed14610531578063a22cb4651461055c578063b88d4fde14610585576101c2565b80637decf27f116100c65780637decf27f1461048557806384900b04146104b05780638da5cb5b146104db57806395d89b4114610506576101c2565b80636352211e146103f457806370a0823114610431578063715018a61461046e576101c2565b806323b872dd116101595780633ccfd60b116101335780633ccfd60b1461036d57806342842e0e146103845780634f6ccce7146103ad57806359533d6c146103ea576101c2565b806323b872dd146102fd5780632bc4927b146103265780632f745c5914610330576101c2565b8063081812fc11610195578063081812fc14610243578063095ea7b31461028057806316c38b3c146102a957806318160ddd146102d2576101c2565b806301ffc9a7146101c457806304c98b2b1461020157806306fdde0314610218576101c2565b366101c257005b005b3480156101d057600080fd5b506101eb60048036038101906101e69190612972565b61067c565b6040516101f891906129ba565b60405180910390f35b34801561020d57600080fd5b506102166106f6565b005b34801561022457600080fd5b5061022d6107a3565b60405161023a9190612a6e565b60405180910390f35b34801561024f57600080fd5b5061026a60048036038101906102659190612ac6565b610835565b6040516102779190612b34565b60405180910390f35b34801561028c57600080fd5b506102a760048036038101906102a29190612b7b565b6108ba565b005b3480156102b557600080fd5b506102d060048036038101906102cb9190612be7565b6109d1565b005b3480156102de57600080fd5b506102e7610a6a565b6040516102f49190612c23565b60405180910390f35b34801561030957600080fd5b50610324600480360381019061031f9190612c3e565b610a77565b005b61032e610ad7565b005b34801561033c57600080fd5b5061035760048036038101906103529190612b7b565b610c21565b6040516103649190612c23565b60405180910390f35b34801561037957600080fd5b50610382610cc6565b005b34801561039057600080fd5b506103ab60048036038101906103a69190612c3e565b610e04565b005b3480156103b957600080fd5b506103d460048036038101906103cf9190612ac6565b610e24565b6040516103e19190612c23565b60405180910390f35b6103f2610e95565b005b34801561040057600080fd5b5061041b60048036038101906104169190612ac6565b6110ba565b6040516104289190612b34565b60405180910390f35b34801561043d57600080fd5b5061045860048036038101906104539190612c91565b61116b565b6040516104659190612c23565b60405180910390f35b34801561047a57600080fd5b50610483611222565b005b34801561049157600080fd5b5061049a6112aa565b6040516104a791906129ba565b60405180910390f35b3480156104bc57600080fd5b506104c56112e0565b6040516104d29190612d1d565b60405180910390f35b3480156104e757600080fd5b506104f0611306565b6040516104fd9190612b34565b60405180910390f35b34801561051257600080fd5b5061051b611330565b6040516105289190612a6e565b60405180910390f35b34801561053d57600080fd5b506105466113c2565b60405161055391906129ba565b60405180910390f35b34801561056857600080fd5b50610583600480360381019061057e9190612d38565b6113f7565b005b34801561059157600080fd5b506105ac60048036038101906105a79190612ead565b61140d565b005b3480156105ba57600080fd5b506105d560048036038101906105d09190612ac6565b61146f565b6040516105e29190612a6e565b60405180910390f35b3480156105f757600080fd5b50610600611516565b60405161060d9190612c23565b60405180910390f35b34801561062257600080fd5b5061063d60048036038101906106389190612f30565b611520565b60405161064a91906129ba565b60405180910390f35b34801561065f57600080fd5b5061067a60048036038101906106759190612c91565b6115b4565b005b60007f780e9d63000000000000000000000000000000000000000000000000000000007bffffffffffffffffffffffffffffffffffffffffffffffffffffffff1916827bffffffffffffffffffffffffffffffffffffffffffffffffffffffff191614806106ef57506106ee826116ab565b5b9050919050565b6106fe61178d565b73ffffffffffffffffffffffffffffffffffffffff1661071c611306565b73ffffffffffffffffffffffffffffffffffffffff1614610772576040517f08c379a000000000000000000000000000000000000000000000000000000000815260040161076990612fbc565b60405180910390fd5b6001601160006101000a81548160ff02191690831515021790555061012c4261079b919061300b565b601281905550565b6060600080546107b290613090565b80601f01602080910402602001604051908101604052809291908181526020018280546107de90613090565b801561082b5780601f106108005761010080835404028352916020019161082b565b820191906000526020600020905b81548152906001019060200180831161080e57829003601f168201915b5050505050905090565b600061084082611795565b61087f576040517f08c379a000000000000000000000000000000000000000000000000000000000815260040161087690613133565b60405180910390fd5b6004600083815260200190815260200160002060009054906101000a900473ffffffffffffffffffffffffffffffffffffffff169050919050565b60006108c5826110ba565b90508073ffffffffffffffffffffffffffffffffffffffff168373ffffffffffffffffffffffffffffffffffffffff1603610935576040517f08c379a000000000000000000000000000000000000000000000000000000000815260040161092c906131c5565b60405180910390fd5b8073ffffffffffffffffffffffffffffffffffffffff1661095461178d565b73ffffffffffffffffffffffffffffffffffffffff16148061098357506109828161097d61178d565b611520565b5b6109c2576040517f08c379a00000000000000000000000000000000000000000000000000000000081526004016109b990613257565b60405180910390fd5b6109cc8383611801565b505050565b6109d961178d565b73ffffffffffffffffffffffffffffffffffffffff166109f7611306565b73ffffffffffffffffffffffffffffffffffffffff1614610a4d576040517f08c379a0000000000000000000000000000000000000000000000000000000008152600401610a4490612fbc565b60405180910390fd5b80600e60006101000a81548160ff02191690831515021790555050565b6000600880549050905090565b610a88610a8261178d565b826118ba565b610ac7576040517f08c379a0000000000000000000000000000000000000000000000000000000008152600401610abe906132e9565b60405180910390fd5b610ad2838383611998565b505050565b600e60009054906101000a900460ff1615610b27576040517f08c379a0000000000000000000000000000000000000000000000000000000008152600401610b1e90613355565b60405180910390fd5b610b2f6112aa565b610b6e576040517f08c379a0000000000000000000000000000000000000000000000000000000008152600401610b65906133c1565b60405180910390fd5b600f5460105410610bb4576040517f08c379a0000000000000000000000000000000000000000000000000000000008152600401610bab90613453565b60405180910390fd5b600d54341015610bf9576040517f08c379a0000000000000000000000000000000000000000000000000000000008152600401610bf0906134bf565b60405180910390fd5b600160106000828254610c0c919061300b565b92505081905550610c1f33601054611bfe565b565b6000610c2c8361116b565b8210610c6d576040517f08c379a0000000000000000000000000000000000000000000000000000000008152600401610c6490613551565b60405180910390fd5b600660008473ffffffffffffffffffffffffffffffffffffffff1673ffffffffffffffffffffffffffffffffffffffff168152602001908152602001600020600083815260200190815260200160002054905092915050565b610cce61178d565b73ffffffffffffffffffffffffffffffffffffffff16610cec611306565b73ffffffffffffffffffffffffffffffffffffffff1614610d42576040517f08c379a0000000000000000000000000000000000000000000000000000000008152600401610d3990612fbc565b60405180910390fd5b6000610d4c611306565b9050600047905060008273ffffffffffffffffffffffffffffffffffffffff1682604051610d79906135a2565b60006040518083038185875af1925050503d8060008114610db6576040519150601f19603f3d011682016040523d82523d6000602084013e610dbb565b606091505b5050905080610dff576040517f08c379a0000000000000000000000000000000000000000000000000000000008152600401610df690613603565b60405180910390fd5b505050565b610e1f8383836040518060200160405280600081525061140d565b505050565b6000610e2e610a6a565b8210610e6f576040517f08c379a0000000000000000000000000000000000000000000000000000000008152600401610e6690613695565b60405180910390fd5b60088281548110610e8357610e826136b5565b5b90600052602060002001549050919050565b600e60009054906101000a900460ff1615610ee5576040517f08c379a0000000000000000000000000000000000000000000000000000000008152600401610edc90613355565b60405180910390fd5b610eed6113c2565b610f2c576040517f08c379a0000000000000000000000000000000000000000000000000000000008152600401610f2390613730565b60405180910390fd5b600b60009054906101000a900473ffffffffffffffffffffffffffffffffffffffff1673ffffffffffffffffffffffffffffffffffffffff166306c933d8336040518263ffffffff1660e01b8152600401610f879190612b34565b602060405180830381865afa158015610fa4573d6000803e3d6000fd5b505050506040513d601f19601f82011682018060405250810190610fc89190613765565b611007576040517f08c379a0000000000000000000000000000000000000000000000000000000008152600401610ffe906137de565b60405180910390fd5b600f546010541061104d576040517f08c379a000000000000000000000000000000000000000000000000000000000815260040161104490613453565b60405180910390fd5b600d54341015611092576040517f08c379a0000000000000000000000000000000000000000000000000000000008152600401611089906134bf565b60405180910390fd5b6001601060008282546110a5919061300b565b925050819055506110b833601054611bfe565b565b6000806002600084815260200190815260200160002060009054906101000a900473ffffffffffffffffffffffffffffffffffffffff169050600073ffffffffffffffffffffffffffffffffffffffff168173ffffffffffffffffffffffffffffffffffffffff1603611162576040517f08c379a000000000000000000000000000000000000000000000000000000000815260040161115990613870565b60405180910390fd5b80915050919050565b60008073ffffffffffffffffffffffffffffffffffffffff168273ffffffffffffffffffffffffffffffffffffffff16036111db576040517f08c379a00000000000000000000000000000000000000000000000000000000081526004016111d290613902565b60405180910390fd5b600360008373ffffffffffffffffffffffffffffffffffffffff1673ffffffffffffffffffffffffffffffffffffffff168152602001908152602001600020549050919050565b61122a61178d565b73ffffffffffffffffffffffffffffffffffffffff16611248611306565b73ffffffffffffffffffffffffffffffffffffffff161461129e576040517f08c379a000000000000000000000000000000000000000000000000000000000815260040161129590612fbc565b60405180910390fd5b6112a86000611c1c565b565b6000601160009054906101000a900460ff1680156112ca57506012544210155b156112d857600190506112dd565b600090505b90565b600b60009054906101000a900473ffffffffffffffffffffffffffffffffffffffff1681565b6000600a60009054906101000a900473ffffffffffffffffffffffffffffffffffffffff16905090565b60606001805461133f90613090565b80601f016020809104026020016040519081016040528092919081815260200182805461136b90613090565b80156113b85780601f1061138d576101008083540402835291602001916113b8565b820191906000526020600020905b81548152906001019060200180831161139b57829003601f168201915b5050505050905090565b6000601160009054906101000a900460ff1680156113e1575060125442105b156113ef57600190506113f4565b600090505b90565b61140961140261178d565b8383611ce2565b5050565b61141e61141861178d565b836118ba565b61145d576040517f08c379a0000000000000000000000000000000000000000000000000000000008152600401611454906132e9565b60405180910390fd5b61146984848484611e4e565b50505050565b606061147a82611795565b6114b9576040517f08c379a00000000000000000000000000000000000000000000000000000000081526004016114b090613994565b60405180910390fd5b60006114c3611eaa565b905060008151116114e3576040518060200160405280600081525061150e565b806114ed84611f3c565b6040516020016114fe9291906139f0565b6040516020818303038152906040525b915050919050565b6000601054905090565b6000600560008473ffffffffffffffffffffffffffffffffffffffff1673ffffffffffffffffffffffffffffffffffffffff16815260200190815260200160002060008373ffffffffffffffffffffffffffffffffffffffff1673ffffffffffffffffffffffffffffffffffffffff16815260200190815260200160002060009054906101000a900460ff16905092915050565b6115bc61178d565b73ffffffffffffffffffffffffffffffffffffffff166115da611306565b73ffffffffffffffffffffffffffffffffffffffff1614611630576040517f08c379a000000000000000000000000000000000000000000000000000000000815260040161162790612fbc565b60405180910390fd5b600073ffffffffffffffffffffffffffffffffffffffff168173ffffffffffffffffffffffffffffffffffffffff160361169f576040517f08c379a000000000000000000000000000000000000000000000000000000000815260040161169690613a86565b60405180910390fd5b6116a881611c1c565b50565b60007f80ac58cd000000000000000000000000000000000000000000000000000000007bffffffffffffffffffffffffffffffffffffffffffffffffffffffff1916827bffffffffffffffffffffffffffffffffffffffffffffffffffffffff1916148061177657507f5b5e139f000000000000000000000000000000000000000000000000000000007bffffffffffffffffffffffffffffffffffffffffffffffffffffffff1916827bffffffffffffffffffffffffffffffffffffffffffffffffffffffff1916145b8061178657506117858261209c565b5b9050919050565b600033905090565b60008073ffffffffffffffffffffffffffffffffffffffff166002600084815260200190815260200160002060009054906101000a900473ffffffffffffffffffffffffffffffffffffffff1673ffffffffffffffffffffffffffffffffffffffff1614159050919050565b816004600083815260200190815260200160002060006101000a81548173ffffffffffffffffffffffffffffffffffffffff021916908373ffffffffffffffffffffffffffffffffffffffff160217905550808273ffffffffffffffffffffffffffffffffffffffff16611874836110ba565b73ffffffffffffffffffffffffffffffffffffffff167f8c5be1e5ebec7d5bd14f71427d1e84f3dd0314c0f7b2291e5b200ac8c7c3b92560405160405180910390a45050565b60006118c582611795565b611904576040517f08c379a00000000000000000000000000000000000000000000000000000000081526004016118fb90613b18565b60405180910390fd5b600061190f836110ba565b90508073ffffffffffffffffffffffffffffffffffffffff168473ffffffffffffffffffffffffffffffffffffffff16148061197e57508373ffffffffffffffffffffffffffffffffffffffff1661196684610835565b73ffffffffffffffffffffffffffffffffffffffff16145b8061198f575061198e8185611520565b5b91505092915050565b8273ffffffffffffffffffffffffffffffffffffffff166119b8826110ba565b73ffffffffffffffffffffffffffffffffffffffff1614611a0e576040517f08c379a0000000000000000000000000000000000000000000000000000000008152600401611a0590613baa565b60405180910390fd5b600073ffffffffffffffffffffffffffffffffffffffff168273ffffffffffffffffffffffffffffffffffffffff1603611a7d576040517f08c379a0000000000000000000000000000000000000000000000000000000008152600401611a7490613c3c565b60405180910390fd5b611a88838383612106565b611a93600082611801565b6001600360008573ffffffffffffffffffffffffffffffffffffffff1673ffffffffffffffffffffffffffffffffffffffff1681526020019081526020016000206000828254611ae39190613c5c565b925050819055506001600360008473ffffffffffffffffffffffffffffffffffffffff1673ffffffffffffffffffffffffffffffffffffffff1681526020019081526020016000206000828254611b3a919061300b565b92505081905550816002600083815260200190815260200160002060006101000a81548173ffffffffffffffffffffffffffffffffffffffff021916908373ffffffffffffffffffffffffffffffffffffffff160217905550808273ffffffffffffffffffffffffffffffffffffffff168473ffffffffffffffffffffffffffffffffffffffff167fddf252ad1be2c89b69c2b068fc378daa952ba7f163c4a11628f55a4df523b3ef60405160405180910390a4611bf9838383612218565b505050565b611c1882826040518060200160405280600081525061221d565b5050565b6000600a60009054906101000a900473ffffffffffffffffffffffffffffffffffffffff16905081600a60006101000a81548173ffffffffffffffffffffffffffffffffffffffff021916908373ffffffffffffffffffffffffffffffffffffffff1602179055508173ffffffffffffffffffffffffffffffffffffffff168173ffffffffffffffffffffffffffffffffffffffff167f8be0079c531659141344cd1fd0a4f28419497f9722a3daafe3b4186f6b6457e060405160405180910390a35050565b8173ffffffffffffffffffffffffffffffffffffffff168373ffffffffffffffffffffffffffffffffffffffff1603611d50576040517f08c379a0000000000000000000000000000000000000000000000000000000008152600401611d4790613cdc565b60405180910390fd5b80600560008573ffffffffffffffffffffffffffffffffffffffff1673ffffffffffffffffffffffffffffffffffffffff16815260200190815260200160002060008473ffffffffffffffffffffffffffffffffffffffff1673ffffffffffffffffffffffffffffffffffffffff16815260200190815260200160002060006101000a81548160ff0219169083151502179055508173ffffffffffffffffffffffffffffffffffffffff168373ffffffffffffffffffffffffffffffffffffffff167f17307eab39ab6107e8899845ad3d59bd9653f200f220920489ca2b5937696c3183604051611e4191906129ba565b60405180910390a3505050565b611e59848484611998565b611e6584848484612278565b611ea4576040517f08c379a0000000000000000000000000000000000000000000000000000000008152600401611e9b90613d6e565b60405180910390fd5b50505050565b6060600c8054611eb990613090565b80601f0160208091040260200160405190810160405280929190818152602001828054611ee590613090565b8015611f325780601f10611f0757610100808354040283529160200191611f32565b820191906000526020600020905b815481529060010190602001808311611f1557829003601f168201915b5050505050905090565b606060008203611f83576040518060400160405280600181526020017f30000000000000000000000000000000000000000000000000000000000000008152509050612097565b600082905060005b60008214611fb5578080611f9e90613d8e565b915050600a82611fae9190613e05565b9150611f8b565b60008167ffffffffffffffff811115611fd157611fd0612d82565b5b6040519080825280601f01601f1916602001820160405280156120035781602001600182028036833780820191505090505b5090505b600085146120905760018261201c9190613c5c565b9150600a8561202b9190613e36565b6030612037919061300b565b60f81b81838151811061204d5761204c6136b5565b5b60200101907effffffffffffffffffffffffffffffffffffffffffffffffffffffffffffff1916908160001a905350600a856120899190613e05565b9450612007565b8093505050505b919050565b60007f01ffc9a7000000000000000000000000000000000000000000000000000000007bffffffffffffffffffffffffffffffffffffffffffffffffffffffff1916827bffffffffffffffffffffffffffffffffffffffffffffffffffffffff1916149050919050565b6121118383836123ff565b600073ffffffffffffffffffffffffffffffffffffffff168373ffffffffffffffffffffffffffffffffffffffff16036121535761214e81612404565b612192565b8173ffffffffffffffffffffffffffffffffffffffff168373ffffffffffffffffffffffffffffffffffffffff161461219157612190838261244d565b5b5b600073ffffffffffffffffffffffffffffffffffffffff168273ffffffffffffffffffffffffffffffffffffffff16036121d4576121cf816125ba565b612213565b8273ffffffffffffffffffffffffffffffffffffffff168273ffffffffffffffffffffffffffffffffffffffff161461221257612211828261268b565b5b5b505050565b505050565b612227838361270a565b6122346000848484612278565b612273576040517f08c379a000000000000000000000000000000000000000000000000000000000815260040161226a90613d6e565b60405180910390fd5b505050565b60006122998473ffffffffffffffffffffffffffffffffffffffff166128e3565b156123f2578373ffffffffffffffffffffffffffffffffffffffff1663150b7a026122c261178d565b8786866040518563ffffffff1660e01b81526004016122e49493929190613ebc565b6020604051808303816000875af192505050801561232057506040513d601f19601f8201168201806040525081019061231d9190613f1d565b60015b6123a2573d8060008114612350576040519150601f19603f3d011682016040523d82523d6000602084013e612355565b606091505b50600081510361239a576040517f08c379a000000000000000000000000000000000000000000000000000000000815260040161239190613d6e565b60405180910390fd5b805181602001fd5b63150b7a0260e01b7bffffffffffffffffffffffffffffffffffffffffffffffffffffffff1916817bffffffffffffffffffffffffffffffffffffffffffffffffffffffff1916149150506123f7565b600190505b949350505050565b505050565b6008805490506009600083815260200190815260200160002081905550600881908060018154018082558091505060019003906000526020600020016000909190919091505550565b6000600161245a8461116b565b6124649190613c5c565b9050600060076000848152602001908152602001600020549050818114612549576000600660008673ffffffffffffffffffffffffffffffffffffffff1673ffffffffffffffffffffffffffffffffffffffff168152602001908152602001600020600084815260200190815260200160002054905080600660008773ffffffffffffffffffffffffffffffffffffffff1673ffffffffffffffffffffffffffffffffffffffff168152602001908152602001600020600084815260200190815260200160002081905550816007600083815260200190815260200160002081905550505b6007600084815260200190815260200160002060009055600660008573ffffffffffffffffffffffffffffffffffffffff1673ffffffffffffffffffffffffffffffffffffffff16815260200190815260200160002060008381526020019081526020016000206000905550505050565b600060016008805490506125ce9190613c5c565b90506000600960008481526020019081526020016000205490506000600883815481106125fe576125fd6136b5565b5b9060005260206000200154905080600883815481106126205761261f6136b5565b5b90600052602060002001819055508160096000838152602001908152602001600020819055506009600085815260200190815260200160002060009055600880548061266f5761266e613f4a565b5b6001900381819060005260206000200160009055905550505050565b60006126968361116b565b905081600660008573ffffffffffffffffffffffffffffffffffffffff1673ffffffffffffffffffffffffffffffffffffffff168152602001908152602001600020600083815260200190815260200160002081905550806007600084815260200190815260200160002081905550505050565b600073ffffffffffffffffffffffffffffffffffffffff168273ffffffffffffffffffffffffffffffffffffffff1603612779576040517f08c379a000000000000000000000000000000000000000000000000000000000815260040161277090613fc5565b60405180910390fd5b61278281611795565b156127c2576040517f08c379a00000000000000000000000000000000000000000000000000000000081526004016127b990614031565b60405180910390fd5b6127ce60008383612106565b6001600360008473ffffffffffffffffffffffffffffffffffffffff1673ffffffffffffffffffffffffffffffffffffffff168152602001908152602001600020600082825461281e919061300b565b92505081905550816002600083815260200190815260200160002060006101000a81548173ffffffffffffffffffffffffffffffffffffffff021916908373ffffffffffffffffffffffffffffffffffffffff160217905550808273ffffffffffffffffffffffffffffffffffffffff16600073ffffffffffffffffffffffffffffffffffffffff167fddf252ad1be2c89b69c2b068fc378daa952ba7f163c4a11628f55a4df523b3ef60405160405180910390a46128df60008383612218565b5050565b6000808273ffffffffffffffffffffffffffffffffffffffff163b119050919050565b6000604051905090565b600080fd5b600080fd5b60007fffffffff0000000000000000000000000000000000000000000000000000000082169050919050565b61294f8161291a565b811461295a57600080fd5b50565b60008135905061296c81612946565b92915050565b60006020828403121561298857612987612910565b5b60006129968482850161295d565b91505092915050565b60008115159050919050565b6129b48161299f565b82525050565b60006020820190506129cf60008301846129ab565b92915050565b600081519050919050565b600082825260208201905092915050565b60005b83811015612a0f5780820151818401526020810190506129f4565b83811115612a1e576000848401525b50505050565b6000601f19601f8301169050919050565b6000612a40826129d5565b612a4a81856129e0565b9350612a5a8185602086016129f1565b612a6381612a24565b840191505092915050565b60006020820190508181036000830152612a888184612a35565b905092915050565b6000819050919050565b612aa381612a90565b8114612aae57600080fd5b50565b600081359050612ac081612a9a565b92915050565b600060208284031215612adc57612adb612910565b5b6000612aea84828501612ab1565b91505092915050565b600073ffffffffffffffffffffffffffffffffffffffff82169050919050565b6000612b1e82612af3565b9050919050565b612b2e81612b13565b82525050565b6000602082019050612b496000830184612b25565b92915050565b612b5881612b13565b8114612b6357600080fd5b50565b600081359050612b7581612b4f565b92915050565b60008060408385031215612b9257612b91612910565b5b6000612ba085828601612b66565b9250506020612bb185828601612ab1565b9150509250929050565b612bc48161299f565b8114612bcf57600080fd5b50565b600081359050612be181612bbb565b92915050565b600060208284031215612bfd57612bfc612910565b5b6000612c0b84828501612bd2565b91505092915050565b612c1d81612a90565b82525050565b6000602082019050612c386000830184612c14565b92915050565b600080600060608486031215612c5757612c56612910565b5b6000612c6586828701612b66565b9350506020612c7686828701612b66565b9250506040612c8786828701612ab1565b9150509250925092565b600060208284031215612ca757612ca6612910565b5b6000612cb584828501612b66565b91505092915050565b6000819050919050565b6000612ce3612cde612cd984612af3565b612cbe565b612af3565b9050919050565b6000612cf582612cc8565b9050919050565b6000612d0782612cea565b9050919050565b612d1781612cfc565b82525050565b6000602082019050612d326000830184612d0e565b92915050565b60008060408385031215612d4f57612d4e612910565b5b6000612d5d85828601612b66565b9250506020612d6e85828601612bd2565b9150509250929050565b600080fd5b600080fd5b7f4e487b7100000000000000000000000000000000000000000000000000000000600052604160045260246000fd5b612dba82612a24565b810181811067ffffffffffffffff82111715612dd957612dd8612d82565b5b80604052505050565b6000612dec612906565b9050612df88282612db1565b919050565b600067ffffffffffffffff821115612e1857612e17612d82565b5b612e2182612a24565b9050602081019050919050565b82818337600083830152505050565b6000612e50612e4b84612dfd565b612de2565b905082815260208101848484011115612e6c57612e6b612d7d565b5b612e77848285612e2e565b509392505050565b600082601f830112612e9457612e93612d78565b5b8135612ea4848260208601612e3d565b91505092915050565b60008060008060808587031215612ec757612ec6612910565b5b6000612ed587828801612b66565b9450506020612ee687828801612b66565b9350506040612ef787828801612ab1565b925050606085013567ffffffffffffffff811115612f1857612f17612915565b5b612f2487828801612e7f565b91505092959194509250565b60008060408385031215612f4757612f46612910565b5b6000612f5585828601612b66565b9250506020612f6685828601612b66565b9150509250929050565b7f4f776e61626c653a2063616c6c6572206973206e6f7420746865206f776e6572600082015250565b6000612fa66020836129e0565b9150612fb182612f70565b602082019050919050565b60006020820190508181036000830152612fd581612f99565b9050919050565b7f4e487b7100000000000000000000000000000000000000000000000000000000600052601160045260246000fd5b600061301682612a90565b915061302183612a90565b9250827fffffffffffffffffffffffffffffffffffffffffffffffffffffffffffffffff0382111561305657613055612fdc565b5b828201905092915050565b7f4e487b7100000000000000000000000000000000000000000000000000000000600052602260045260246000fd5b600060028204905060018216806130a857607f821691505b6020821081036130bb576130ba613061565b5b50919050565b7f4552433732313a20617070726f76656420717565727920666f72206e6f6e657860008201527f697374656e7420746f6b656e0000000000000000000000000000000000000000602082015250565b600061311d602c836129e0565b9150613128826130c1565b604082019050919050565b6000602082019050818103600083015261314c81613110565b9050919050565b7f4552433732313a20617070726f76616c20746f2063757272656e74206f776e6560008201527f7200000000000000000000000000000000000000000000000000000000000000602082015250565b60006131af6021836129e0565b91506131ba82613153565b604082019050919050565b600060208201905081810360008301526131de816131a2565b9050919050565b7f4552433732313a20617070726f76652063616c6c6572206973206e6f74206f7760008201527f6e6572206e6f7220617070726f76656420666f7220616c6c0000000000000000602082015250565b60006132416038836129e0565b915061324c826131e5565b604082019050919050565b6000602082019050818103600083015261327081613234565b9050919050565b7f4552433732313a207472616e736665722063616c6c6572206973206e6f74206f60008201527f776e6572206e6f7220617070726f766564000000000000000000000000000000602082015250565b60006132d36031836129e0565b91506132de82613277565b604082019050919050565b60006020820190508181036000830152613302816132c6565b9050919050565b7f436f6e74726163742063757272656e746c792070617573656400000000000000600082015250565b600061333f6019836129e0565b915061334a82613309565b602082019050919050565b6000602082019050818103600083015261336e81613332565b9050919050565b7f50726573616c6520686173206e6f7420656e6465642079657400000000000000600082015250565b60006133ab6019836129e0565b91506133b682613375565b602082019050919050565b600060208201905081810360008301526133da8161339e565b9050919050565b7f4578636565646564206d6178696d756d2043727970746f20446576732073757060008201527f706c790000000000000000000000000000000000000000000000000000000000602082015250565b600061343d6023836129e0565b9150613448826133e1565b604082019050919050565b6000602082019050818103600083015261346c81613430565b9050919050565b7f45746865722073656e74206973206e6f7420636f727265637400000000000000600082015250565b60006134a96019836129e0565b91506134b482613473565b602082019050919050565b600060208201905081810360008301526134d88161349c565b9050919050565b7f455243373231456e756d657261626c653a206f776e657220696e646578206f7560008201527f74206f6620626f756e6473000000000000000000000000000000000000000000602082015250565b600061353b602b836129e0565b9150613546826134df565b604082019050919050565b6000602082019050818103600083015261356a8161352e565b9050919050565b600081905092915050565b50565b600061358c600083613571565b91506135978261357c565b600082019050919050565b60006135ad8261357f565b9150819050919050565b7f4661696c656420746f2073656e64204574686572000000000000000000000000600082015250565b60006135ed6014836129e0565b91506135f8826135b7565b602082019050919050565b6000602082019050818103600083015261361c816135e0565b9050919050565b7f455243373231456e756d657261626c653a20676c6f62616c20696e646578206f60008201527f7574206f6620626f756e64730000000000000000000000000000000000000000602082015250565b600061367f602c836129e0565b915061368a82613623565b604082019050919050565b600060208201905081810360008301526136ae81613672565b9050919050565b7f4e487b7100000000000000000000000000000000000000000000000000000000600052603260045260246000fd5b7f50726573616c65206973206e6f74207374617274656400000000000000000000600082015250565b600061371a6016836129e0565b9150613725826136e4565b602082019050919050565b600060208201905081810360008301526137498161370d565b9050919050565b60008151905061375f81612bbb565b92915050565b60006020828403121561377b5761377a612910565b5b600061378984828501613750565b91505092915050565b7f596f7520617265206e6f742077686974656c6973746564000000000000000000600082015250565b60006137c86017836129e0565b91506137d382613792565b602082019050919050565b600060208201905081810360008301526137f7816137bb565b9050919050565b7f4552433732313a206f776e657220717565727920666f72206e6f6e657869737460008201527f656e7420746f6b656e0000000000000000000000000000000000000000000000602082015250565b600061385a6029836129e0565b9150613865826137fe565b604082019050919050565b600060208201905081810360008301526138898161384d565b9050919050565b7f4552433732313a2062616c616e636520717565727920666f7220746865207a6560008201527f726f206164647265737300000000000000000000000000000000000000000000602082015250565b60006138ec602a836129e0565b91506138f782613890565b604082019050919050565b6000602082019050818103600083015261391b816138df565b9050919050565b7f4552433732314d657461646174613a2055524920717565727920666f72206e6f60008201527f6e6578697374656e7420746f6b656e0000000000000000000000000000000000602082015250565b600061397e602f836129e0565b915061398982613922565b604082019050919050565b600060208201905081810360008301526139ad81613971565b9050919050565b600081905092915050565b60006139ca826129d5565b6139d481856139b4565b93506139e48185602086016129f1565b80840191505092915050565b60006139fc82856139bf565b9150613a0882846139bf565b91508190509392505050565b7f4f776e61626c653a206e6577206f776e657220697320746865207a65726f206160008201527f6464726573730000000000000000000000000000000000000000000000000000602082015250565b6000613a706026836129e0565b9150613a7b82613a14565b604082019050919050565b60006020820190508181036000830152613a9f81613a63565b9050919050565b7f4552433732313a206f70657261746f7220717565727920666f72206e6f6e657860008201527f697374656e7420746f6b656e0000000000000000000000000000000000000000602082015250565b6000613b02602c836129e0565b9150613b0d82613aa6565b604082019050919050565b60006020820190508181036000830152613b3181613af5565b9050919050565b7f4552433732313a207472616e736665722066726f6d20696e636f72726563742060008201527f6f776e6572000000000000000000000000000000000000000000000000000000602082015250565b6000613b946025836129e0565b9150613b9f82613b38565b604082019050919050565b60006020820190508181036000830152613bc381613b87565b9050919050565b7f4552433732313a207472616e7366657220746f20746865207a65726f2061646460008201527f7265737300000000000000000000000000000000000000000000000000000000602082015250565b6000613c266024836129e0565b9150613c3182613bca565b604082019050919050565b60006020820190508181036000830152613c5581613c19565b9050919050565b6000613c6782612a90565b9150613c7283612a90565b925082821015613c8557613c84612fdc565b5b828203905092915050565b7f4552433732313a20617070726f766520746f2063616c6c657200000000000000600082015250565b6000613cc66019836129e0565b9150613cd182613c90565b602082019050919050565b60006020820190508181036000830152613cf581613cb9565b9050919050565b7f4552433732313a207472616e7366657220746f206e6f6e20455243373231526560008201527f63656976657220696d706c656d656e7465720000000000000000000000000000602082015250565b6000613d586032836129e0565b9150613d6382613cfc565b604082019050919050565b60006020820190508181036000830152613d8781613d4b565b9050919050565b6000613d9982612a90565b91507fffffffffffffffffffffffffffffffffffffffffffffffffffffffffffffffff8203613dcb57613dca612fdc565b5b600182019050919050565b7f4e487b7100000000000000000000000000000000000000000000000000000000600052601260045260246000fd5b6000613e1082612a90565b9150613e1b83612a90565b925082613e2b57613e2a613dd6565b5b828204905092915050565b6000613e4182612a90565b9150613e4c83612a90565b925082613e5c57613e5b613dd6565b5b828206905092915050565b600081519050919050565b600082825260208201905092915050565b6000613e8e82613e67565b613e988185613e72565b9350613ea88185602086016129f1565b613eb181612a24565b840191505092915050565b6000608082019050613ed16000830187612b25565b613ede6020830186612b25565b613eeb6040830185612c14565b8181036060830152613efd8184613e83565b905095945050505050565b600081519050613f1781612946565b92915050565b600060208284031215613f3357613f32612910565b5b6000613f4184828501613f08565b91505092915050565b7f4e487b7100000000000000000000000000000000000000000000000000000000600052603160045260246000fd5b7f4552433732313a206d696e7420746f20746865207a65726f2061646472657373600082015250565b6000613faf6020836129e0565b9150613fba82613f79565b602082019050919050565b60006020820190508181036000830152613fde81613fa2565b9050919050565b7f4552433732313a20746f6b656e20616c7265616479206d696e74656400000000600082015250565b600061401b601c836129e0565b915061402682613fe5565b602082019050919050565b6000602082019050818103600083015261404a8161400e565b905091905056fea264697066735822122012b8361a5119b5b531b9a7894d5c6774f74d3667d7b69426c0129f232f12d02e64736f6c634300080d0033",
  "linkReferences": {},
  "deployedLinkReferences": {}
}