{
  "_format": "hh-sol-artifact-1",
  "contractName": "CryptoDevsToken",
  "sourceName": "contracts/CryptoDevsToken.sol",
  "abi": [
    {
      "inputs": [
        {
          "internalType": "address",
          "name": "_cryptoDevsContract",
          "type": "address"
        }
      ],
      "stateMutability": "nonpayable",
      "type": "constructor"
    },
    {
      "anonymous": false,
      "inputs": [
        {
          "indexed": true,
          "internalType": "address",
          "name": "owner",
          "type": "address"
        },
        {
          "indexed": true,
          "internalType": "address",
          "name": "spender",
          "type": "address"
        },
        {
          "indexed": false,
          "internalType": "uint256",
          "name": "value",
          "type": "uint256"
        }
      ],
      "name": "Approval",
      "type": "event"
    },
    {
      "anonymous": false,
      "inputs": [
        {
          "indexed": true,
          "internalType": "address",
          "name": "previousOwner",
          "type": "address"
        },
        {
          "indexed": true,
          "internalType": "address",
          "name": "newOwner",
          "type": "address"
        }
      ],
      "name": "OwnershipTransferred",
      "type": "event"
    },
    {
      "anonymous": false,
      "inputs": [
        {
          "indexed": true,
          "internalType": "address",
          "name": "from",
          "type": "address"
        },
        {
          "indexed": true,
          "internalType": "address",
          "name": "to",
          "type": "address"
        },
        {
          "indexed": false,
          "internalType": "uint256",
          "name": "value",
          "type": "uint256"
        }
      ],
      "name": "Transfer",
      "type": "event"
    },
    {
      "stateMutability": "payable",
      "type": "fallback"
    },
    {
      "inputs": [],
      "name": "ERC20_MAX_TOTAL_SUPPLY",
      "outputs": [
        {
          "internalType": "uint256",
          "name": "",
          "type": "uint256"
        }
      ],
      "stateMutability": "view",
      "type": "function"
    },
    {
      "inputs": [],
      "name": "ERC20_TOKENS_PER_NFT",
      "outputs": [
        {
          "internalType": "uint256",
          "name": "",
          "type": "uint256"
        }
      ],
      "stateMutability": "view",
      "type": "function"
    },
    {
      "inputs": [],
      "name": "ERC20_TOKEN_PRICE",
      "outputs": [
        {
          "internalType": "uint256",
          "name": "",
          "type": "uint256"
        }
      ],
      "stateMutability": "view",
      "type": "function"
    },
    {
      "inputs": [
        {
          "internalType": "address",
          "name": "owner",
          "type": "address"
        },
        {
          "internalType": "address",
          "name": "spender",
          "type": "address"
        }
      ],
      "name": "allowance",
      "outputs": [
        {
          "internalType": "uint256",
          "name": "",
          "type": "uint256"
        }
      ],
      "stateMutability": "view",
      "type": "function"
    },
    {
      "inputs": [
        {
          "internalType": "address",
          "name": "spender",
          "type": "address"
        },
        {
          "internalType": "uint256",
          "name": "amount",
          "type": "uint256"
        }
      ],
      "name": "approve",
      "outputs": [
        {
          "internalType": "bool",
          "name": "",
          "type": "bool"
        }
      ],
      "stateMutability": "nonpayable",
      "type": "function"
    },
    {
      "inputs": [
        {
          "internalType": "address",
          "name": "account",
          "type": "address"
        }
      ],
      "name": "balanceOf",
      "outputs": [
        {
          "internalType": "uint256",
          "name": "",
          "type": "uint256"
        }
      ],
      "stateMutability": "view",
      "type": "function"
    },
    {
      "inputs": [],
      "name": "claim",
      "outputs": [],
      "stateMutability": "nonpayable",
      "type": "function"
    },
    {
      "inputs": [],
      "name": "decimals",
      "outputs": [
        {
          "internalType": "uint8",
          "name": "",
          "type": "uint8"
        }
      ],
      "stateMutability": "view",
      "type": "function"
    },
    {
      "inputs": [
        {
          "internalType": "address",
          "name": "spender",
          "type": "address"
        },
        {
          "internalType": "uint256",
          "name": "subtractedValue",
          "type": "uint256"
        }
      ],
      "name": "decreaseAllowance",
      "outputs": [
        {
          "internalType": "bool",
          "name": "",
          "type": "bool"
        }
      ],
      "stateMutability": "nonpayable",
      "type": "function"
    },
    {
      "inputs": [
        {
          "internalType": "uint256",
          "name": "",
          "type": "uint256"
        }
      ],
      "name": "erc721_tokenIds_claimed",
      "outputs": [
        {
          "internalType": "bool",
          "name": "",
          "type": "bool"
        }
      ],
      "stateMutability": "view",
      "type": "function"
    },
    {
      "inputs": [
        {
          "internalType": "address",
          "name": "spender",
          "type": "address"
        },
        {
          "internalType": "uint256",
          "name": "addedValue",
          "type": "uint256"
        }
      ],
      "name": "increaseAllowance",
      "outputs": [
        {
          "internalType": "bool",
          "name": "",
          "type": "bool"
        }
      ],
      "stateMutability": "nonpayable",
      "type": "function"
    },
    {
      "inputs": [
        {
          "internalType": "uint256",
          "name": "no_Of_ERC20_tokens_requested",
          "type": "uint256"
        }
      ],
      "name": "mint",
      "outputs": [],
      "stateMutability": "payable",
      "type": "function"
    },
    {
      "inputs": [],
      "name": "name",
      "outputs": [
        {
          "internalType": "string",
          "name": "",
          "type": "string"
        }
      ],
      "stateMutability": "view",
      "type": "function"
    },
    {
      "inputs": [],
      "name": "owner",
      "outputs": [
        {
          "internalType": "address",
          "name": "",
          "type": "address"
        }
      ],
      "stateMutability": "view",
      "type": "function"
    },
    {
      "inputs": [],
      "name": "renounceOwnership",
      "outputs": [],
      "stateMutability": "nonpayable",
      "type": "function"
    },
    {
      "inputs": [],
      "name": "symbol",
      "outputs": [
        {
          "internalType": "string",
          "name": "",
          "type": "string"
        }
      ],
      "stateMutability": "view",
      "type": "function"
    },
    {
      "inputs": [],
      "name": "totalSupply",
      "outputs": [
        {
          "internalType": "uint256",
          "name": "",
          "type": "uint256"
        }
      ],
      "stateMutability": "view",
      "type": "function"
    },
    {
      "inputs": [
        {
          "internalType": "address",
          "name": "to",
          "type": "address"
        },
        {
          "internalType": "uint256",
          "name": "amount",
          "type": "uint256"
        }
      ],
      "name": "transfer",
      "outputs": [
        {
          "internalType": "bool",
          "name": "",
          "type": "bool"
        }
      ],
      "stateMutability": "nonpayable",
      "type": "function"
    },
    {
      "inputs": [
        {
          "internalType": "address",
          "name": "from",
          "type": "address"
        },
        {
          "internalType": "address",
          "name": "to",
          "type": "address"
        },
        {
          "internalType": "uint256",
          "name": "amount",
          "type": "uint256"
        }
      ],
      "name": "transferFrom",
      "outputs": [
        {
          "internalType": "bool",
          "name": "",
          "type": "bool"
        }
      ],
      "stateMutability": "nonpayable",
      "type": "function"
    },
    {
      "inputs": [
        {
          "internalType": "address",
          "name": "newOwner",
          "type": "address"
        }
      ],
      "name": "transferOwnership",
      "outputs": [],
      "stateMutability": "nonpayable",
      "type": "function"
    },
    {
      "stateMutability": "payable",
      "type": "receive"
    }
  ],
  "bytecode": "0x60806040523480156200001157600080fd5b50604051620025cb380380620025cb833981810160405281019062000037919062000327565b6040518060400160405280601081526020017f43727970746f2044657620546f6b656e000000000000000000000000000000008152506040518060400160405280600281526020017f43440000000000000000000000000000000000000000000000000000000000008152508160039080519060200190620000bb9291906200020d565b508060049080519060200190620000d49291906200020d565b505050620000f7620000eb6200013f60201b60201c565b6200014760201b60201c565b80600660006101000a81548173ffffffffffffffffffffffffffffffffffffffff021916908373ffffffffffffffffffffffffffffffffffffffff16021790555050620003bd565b600033905090565b6000600560009054906101000a900473ffffffffffffffffffffffffffffffffffffffff16905081600560006101000a81548173ffffffffffffffffffffffffffffffffffffffff021916908373ffffffffffffffffffffffffffffffffffffffff1602179055508173ffffffffffffffffffffffffffffffffffffffff168173ffffffffffffffffffffffffffffffffffffffff167f8be0079c531659141344cd1fd0a4f28419497f9722a3daafe3b4186f6b6457e060405160405180910390a35050565b8280546200021b9062000388565b90600052602060002090601f0160209004810192826200023f57600085556200028b565b82601f106200025a57805160ff19168380011785556200028b565b828001600101855582156200028b579182015b828111156200028a5782518255916020019190600101906200026d565b5b5090506200029a91906200029e565b5090565b5b80821115620002b95760008160009055506001016200029f565b5090565b600080fd5b600073ffffffffffffffffffffffffffffffffffffffff82169050919050565b6000620002ef82620002c2565b9050919050565b6200030181620002e2565b81146200030d57600080fd5b50565b6000815190506200032181620002f6565b92915050565b60006020828403121562000340576200033f620002bd565b5b6000620003508482850162000310565b91505092915050565b7f4e487b7100000000000000000000000000000000000000000000000000000000600052602260045260246000fd5b60006002820490506001821680620003a157607f821691505b602082108103620003b757620003b662000359565b5b50919050565b6121fe80620003cd6000396000f3fe6080604052600436106101235760003560e01c80637533d47d116100a0578063a457c2d711610064578063a457c2d7146103d4578063a9059cbb14610411578063cb0bf06c1461044e578063dd62ed3e14610479578063f2fde38b146104b65761012a565b80637533d47d1461030c5780638da5cb5b1461033757806395d89b41146103625780639c8d184e1461038d578063a0712d68146103b85761012a565b806339509351116100e757806339509351146102275780633fc8f16d146102645780634e71d92d146102a157806370a08231146102b8578063715018a6146102f55761012a565b806306fdde031461012c578063095ea7b31461015757806318160ddd1461019457806323b872dd146101bf578063313ce567146101fc5761012a565b3661012a57005b005b34801561013857600080fd5b506101416104df565b60405161014e91906115c9565b60405180910390f35b34801561016357600080fd5b5061017e60048036038101906101799190611684565b610571565b60405161018b91906116df565b60405180910390f35b3480156101a057600080fd5b506101a9610594565b6040516101b69190611709565b60405180910390f35b3480156101cb57600080fd5b506101e660048036038101906101e19190611724565b61059e565b6040516101f391906116df565b60405180910390f35b34801561020857600080fd5b506102116105cd565b60405161021e9190611793565b60405180910390f35b34801561023357600080fd5b5061024e60048036038101906102499190611684565b6105d6565b60405161025b91906116df565b60405180910390f35b34801561027057600080fd5b5061028b600480360381019061028691906117ae565b610680565b60405161029891906116df565b60405180910390f35b3480156102ad57600080fd5b506102b66106a0565b005b3480156102c457600080fd5b506102df60048036038101906102da91906117db565b61090b565b6040516102ec9190611709565b60405180910390f35b34801561030157600080fd5b5061030a610953565b005b34801561031857600080fd5b506103216109db565b60405161032e9190611709565b60405180910390f35b34801561034357600080fd5b5061034c6109e8565b6040516103599190611817565b60405180910390f35b34801561036e57600080fd5b50610377610a12565b60405161038491906115c9565b60405180910390f35b34801561039957600080fd5b506103a2610aa4565b6040516103af9190611709565b60405180910390f35b6103d260048036038101906103cd91906117ae565b610aaf565b005b3480156103e057600080fd5b506103fb60048036038101906103f69190611684565b610b8e565b60405161040891906116df565b60405180910390f35b34801561041d57600080fd5b5061043860048036038101906104339190611684565b610c78565b60405161044591906116df565b60405180910390f35b34801561045a57600080fd5b50610463610c9b565b6040516104709190611709565b60405180910390f35b34801561048557600080fd5b506104a0600480360381019061049b9190611832565b610ca7565b6040516104ad9190611709565b60405180910390f35b3480156104c257600080fd5b506104dd60048036038101906104d891906117db565b610d2e565b005b6060600380546104ee906118a1565b80601f016020809104026020016040519081016040528092919081815260200182805461051a906118a1565b80156105675780601f1061053c57610100808354040283529160200191610567565b820191906000526020600020905b81548152906001019060200180831161054a57829003601f168201915b5050505050905090565b60008061057c610e25565b9050610589818585610e2d565b600191505092915050565b6000600254905090565b6000806105a9610e25565b90506105b6858285610ff6565b6105c1858585611082565b60019150509392505050565b60006012905090565b6000806105e1610e25565b9050610675818585600160008673ffffffffffffffffffffffffffffffffffffffff1673ffffffffffffffffffffffffffffffffffffffff16815260200190815260200160002060008973ffffffffffffffffffffffffffffffffffffffff1673ffffffffffffffffffffffffffffffffffffffff168152602001908152602001600020546106709190611901565b610e2d565b600191505092915050565b60076020528060005260406000206000915054906101000a900460ff1681565b6000600660009054906101000a900473ffffffffffffffffffffffffffffffffffffffff1673ffffffffffffffffffffffffffffffffffffffff166370a08231336040518263ffffffff1660e01b81526004016106fd9190611817565b602060405180830381865afa15801561071a573d6000803e3d6000fd5b505050506040513d601f19601f8201168201806040525081019061073e919061196c565b905060008111610783576040517f08c379a000000000000000000000000000000000000000000000000000000000815260040161077a90611a0b565b60405180910390fd5b6000805b828110156108a6576000600660009054906101000a900473ffffffffffffffffffffffffffffffffffffffff1673ffffffffffffffffffffffffffffffffffffffff16632f745c5933846040518363ffffffff1660e01b81526004016107ee929190611a2b565b602060405180830381865afa15801561080b573d6000803e3d6000fd5b505050506040513d601f19601f8201168201806040525081019061082f919061196c565b90506007600082815260200190815260200160002060009054906101000a900460ff16610892576001836108639190611901565b925060016007600083815260200190815260200160002060006101000a81548160ff0219169083151502179055505b50808061089e90611a54565b915050610787565b50600081116108ea576040517f08c379a00000000000000000000000000000000000000000000000000000000081526004016108e190611b0e565b60405180910390fd5b61090733678ac7230489e80000836109029190611b2e565b611301565b5050565b60008060008373ffffffffffffffffffffffffffffffffffffffff1673ffffffffffffffffffffffffffffffffffffffff168152602001908152602001600020549050919050565b61095b610e25565b73ffffffffffffffffffffffffffffffffffffffff166109796109e8565b73ffffffffffffffffffffffffffffffffffffffff16146109cf576040517f08c379a00000000000000000000000000000000000000000000000000000000081526004016109c690611bd4565b60405180910390fd5b6109d96000611460565b565b683635c9adc5dea0000081565b6000600560009054906101000a900473ffffffffffffffffffffffffffffffffffffffff16905090565b606060048054610a21906118a1565b80601f0160208091040260200160405190810160405280929190818152602001828054610a4d906118a1565b8015610a9a5780601f10610a6f57610100808354040283529160200191610a9a565b820191906000526020600020905b815481529060010190602001808311610a7d57829003601f168201915b5050505050905090565b66038d7ea4c6800081565b60008166038d7ea4c68000610ac49190611b2e565b905080341015610b09576040517f08c379a0000000000000000000000000000000000000000000000000000000008152600401610b0090611c40565b60405180910390fd5b6000670de0b6b3a764000083610b1f9190611b2e565b9050683635c9adc5dea0000081610b34610594565b610b3e9190611901565b1115610b7f576040517f08c379a0000000000000000000000000000000000000000000000000000000008152600401610b7690611cd2565b60405180910390fd5b610b893382611301565b505050565b600080610b99610e25565b90506000600160008373ffffffffffffffffffffffffffffffffffffffff1673ffffffffffffffffffffffffffffffffffffffff16815260200190815260200160002060008673ffffffffffffffffffffffffffffffffffffffff1673ffffffffffffffffffffffffffffffffffffffff16815260200190815260200160002054905083811015610c5f576040517f08c379a0000000000000000000000000000000000000000000000000000000008152600401610c5690611d64565b60405180910390fd5b610c6c8286868403610e2d565b60019250505092915050565b600080610c83610e25565b9050610c90818585611082565b600191505092915050565b678ac7230489e8000081565b6000600160008473ffffffffffffffffffffffffffffffffffffffff1673ffffffffffffffffffffffffffffffffffffffff16815260200190815260200160002060008373ffffffffffffffffffffffffffffffffffffffff1673ffffffffffffffffffffffffffffffffffffffff16815260200190815260200160002054905092915050565b610d36610e25565b73ffffffffffffffffffffffffffffffffffffffff16610d546109e8565b73ffffffffffffffffffffffffffffffffffffffff1614610daa576040517f08c379a0000000000000000000000000000000000000000000000000000000008152600401610da190611bd4565b60405180910390fd5b600073ffffffffffffffffffffffffffffffffffffffff168173ffffffffffffffffffffffffffffffffffffffff1603610e19576040517f08c379a0000000000000000000000000000000000000000000000000000000008152600401610e1090611df6565b60405180910390fd5b610e2281611460565b50565b600033905090565b600073ffffffffffffffffffffffffffffffffffffffff168373ffffffffffffffffffffffffffffffffffffffff1603610e9c576040517f08c379a0000000000000000000000000000000000000000000000000000000008152600401610e9390611e88565b60405180910390fd5b600073ffffffffffffffffffffffffffffffffffffffff168273ffffffffffffffffffffffffffffffffffffffff1603610f0b576040517f08c379a0000000000000000000000000000000000000000000000000000000008152600401610f0290611f1a565b60405180910390fd5b80600160008573ffffffffffffffffffffffffffffffffffffffff1673ffffffffffffffffffffffffffffffffffffffff16815260200190815260200160002060008473ffffffffffffffffffffffffffffffffffffffff1673ffffffffffffffffffffffffffffffffffffffff168152602001908152602001600020819055508173ffffffffffffffffffffffffffffffffffffffff168373ffffffffffffffffffffffffffffffffffffffff167f8c5be1e5ebec7d5bd14f71427d1e84f3dd0314c0f7b2291e5b200ac8c7c3b92583604051610fe99190611709565b60405180910390a3505050565b60006110028484610ca7565b90507fffffffffffffffffffffffffffffffffffffffffffffffffffffffffffffffff811461107c578181101561106e576040517f08c379a000000000000000000000000000000000000000000000000000000000815260040161106590611f86565b60405180910390fd5b61107b8484848403610e2d565b5b50505050565b600073ffffffffffffffffffffffffffffffffffffffff168373ffffffffffffffffffffffffffffffffffffffff16036110f1576040517f08c379a00000000000000000000000000000000000000000000000000000000081526004016110e890612018565b60405180910390fd5b600073ffffffffffffffffffffffffffffffffffffffff168273ffffffffffffffffffffffffffffffffffffffff1603611160576040517f08c379a0000000000000000000000000000000000000000000000000000000008152600401611157906120aa565b60405180910390fd5b61116b838383611526565b60008060008573ffffffffffffffffffffffffffffffffffffffff1673ffffffffffffffffffffffffffffffffffffffff168152602001908152602001600020549050818110156111f1576040517f08c379a00000000000000000000000000000000000000000000000000000000081526004016111e89061213c565b60405180910390fd5b8181036000808673ffffffffffffffffffffffffffffffffffffffff1673ffffffffffffffffffffffffffffffffffffffff16815260200190815260200160002081905550816000808573ffffffffffffffffffffffffffffffffffffffff1673ffffffffffffffffffffffffffffffffffffffff16815260200190815260200160002060008282546112849190611901565b925050819055508273ffffffffffffffffffffffffffffffffffffffff168473ffffffffffffffffffffffffffffffffffffffff167fddf252ad1be2c89b69c2b068fc378daa952ba7f163c4a11628f55a4df523b3ef846040516112e89190611709565b60405180910390a36112fb84848461152b565b50505050565b600073ffffffffffffffffffffffffffffffffffffffff168273ffffffffffffffffffffffffffffffffffffffff1603611370576040517f08c379a0000000000000000000000000000000000000000000000000000000008152600401611367906121a8565b60405180910390fd5b61137c60008383611526565b806002600082825461138e9190611901565b92505081905550806000808473ffffffffffffffffffffffffffffffffffffffff1673ffffffffffffffffffffffffffffffffffffffff16815260200190815260200160002060008282546113e39190611901565b925050819055508173ffffffffffffffffffffffffffffffffffffffff16600073ffffffffffffffffffffffffffffffffffffffff167fddf252ad1be2c89b69c2b068fc378daa952ba7f163c4a11628f55a4df523b3ef836040516114489190611709565b60405180910390a361145c6000838361152b565b5050565b6000600560009054906101000a900473ffffffffffffffffffffffffffffffffffffffff16905081600560006101000a81548173ffffffffffffffffffffffffffffffffffffffff021916908373ffffffffffffffffffffffffffffffffffffffff1602179055508173ffffffffffffffffffffffffffffffffffffffff168173ffffffffffffffffffffffffffffffffffffffff167f8be0079c531659141344cd1fd0a4f28419497f9722a3daafe3b4186f6b6457e060405160405180910390a35050565b505050565b505050565b600081519050919050565b600082825260208201905092915050565b60005b8381101561156a57808201518184015260208101905061154f565b83811115611579576000848401525b50505050565b6000601f19601f8301169050919050565b600061159b82611530565b6115a5818561153b565b93506115b581856020860161154c565b6115be8161157f565b840191505092915050565b600060208201905081810360008301526115e38184611590565b905092915050565b600080fd5b600073ffffffffffffffffffffffffffffffffffffffff82169050919050565b600061161b826115f0565b9050919050565b61162b81611610565b811461163657600080fd5b50565b60008135905061164881611622565b92915050565b6000819050919050565b6116618161164e565b811461166c57600080fd5b50565b60008135905061167e81611658565b92915050565b6000806040838503121561169b5761169a6115eb565b5b60006116a985828601611639565b92505060206116ba8582860161166f565b9150509250929050565b60008115159050919050565b6116d9816116c4565b82525050565b60006020820190506116f460008301846116d0565b92915050565b6117038161164e565b82525050565b600060208201905061171e60008301846116fa565b92915050565b60008060006060848603121561173d5761173c6115eb565b5b600061174b86828701611639565b935050602061175c86828701611639565b925050604061176d8682870161166f565b9150509250925092565b600060ff82169050919050565b61178d81611777565b82525050565b60006020820190506117a86000830184611784565b92915050565b6000602082840312156117c4576117c36115eb565b5b60006117d28482850161166f565b91505092915050565b6000602082840312156117f1576117f06115eb565b5b60006117ff84828501611639565b91505092915050565b61181181611610565b82525050565b600060208201905061182c6000830184611808565b92915050565b60008060408385031215611849576118486115eb565b5b600061185785828601611639565b925050602061186885828601611639565b9150509250929050565b7f4e487b7100000000000000000000000000000000000000000000000000000000600052602260045260246000fd5b600060028204905060018216806118b957607f821691505b6020821081036118cc576118cb611872565b5b50919050565b7f4e487b7100000000000000000000000000000000000000000000000000000000600052601160045260246000fd5b600061190c8261164e565b91506119178361164e565b9250827fffffffffffffffffffffffffffffffffffffffffffffffffffffffffffffffff0382111561194c5761194b6118d2565b5b828201905092915050565b60008151905061196681611658565b92915050565b600060208284031215611982576119816115eb565b5b600061199084828501611957565b91505092915050565b7f596f7520646f6e74206f776e20616e792043727970746f20446576204e46542760008201527f7300000000000000000000000000000000000000000000000000000000000000602082015250565b60006119f560218361153b565b9150611a0082611999565b604082019050919050565b60006020820190508181036000830152611a24816119e8565b9050919050565b6000604082019050611a406000830185611808565b611a4d60208301846116fa565b9392505050565b6000611a5f8261164e565b91507fffffffffffffffffffffffffffffffffffffffffffffffffffffffffffffffff8203611a9157611a906118d2565b5b600182019050919050565b7f596f75206861766520616c726561647920636c61696d656420616c6c2074686560008201527f20746f6b656e7300000000000000000000000000000000000000000000000000602082015250565b6000611af860278361153b565b9150611b0382611a9c565b604082019050919050565b60006020820190508181036000830152611b2781611aeb565b9050919050565b6000611b398261164e565b9150611b448361164e565b9250817fffffffffffffffffffffffffffffffffffffffffffffffffffffffffffffffff0483118215151615611b7d57611b7c6118d2565b5b828202905092915050565b7f4f776e61626c653a2063616c6c6572206973206e6f7420746865206f776e6572600082015250565b6000611bbe60208361153b565b9150611bc982611b88565b602082019050919050565b60006020820190508181036000830152611bed81611bb1565b9050919050565b7f45746865722073656e7420697320696e636f7272656374000000000000000000600082015250565b6000611c2a60178361153b565b9150611c3582611bf4565b602082019050919050565b60006020820190508181036000830152611c5981611c1d565b9050919050565b7f4578636565647320746865206d617820746f74616c20737570706c792061766160008201527f696c61626c652e00000000000000000000000000000000000000000000000000602082015250565b6000611cbc60278361153b565b9150611cc782611c60565b604082019050919050565b60006020820190508181036000830152611ceb81611caf565b9050919050565b7f45524332303a2064656372656173656420616c6c6f77616e63652062656c6f7760008201527f207a65726f000000000000000000000000000000000000000000000000000000602082015250565b6000611d4e60258361153b565b9150611d5982611cf2565b604082019050919050565b60006020820190508181036000830152611d7d81611d41565b9050919050565b7f4f776e61626c653a206e6577206f776e657220697320746865207a65726f206160008201527f6464726573730000000000000000000000000000000000000000000000000000602082015250565b6000611de060268361153b565b9150611deb82611d84565b604082019050919050565b60006020820190508181036000830152611e0f81611dd3565b9050919050565b7f45524332303a20617070726f76652066726f6d20746865207a65726f2061646460008201527f7265737300000000000000000000000000000000000000000000000000000000602082015250565b6000611e7260248361153b565b9150611e7d82611e16565b604082019050919050565b60006020820190508181036000830152611ea181611e65565b9050919050565b7f45524332303a20617070726f766520746f20746865207a65726f20616464726560008201527f7373000000000000000000000000000000000000000000000000000000000000602082015250565b6000611f0460228361153b565b9150611f0f82611ea8565b604082019050919050565b60006020820190508181036000830152611f3381611ef7565b9050919050565b7f45524332303a20696e73756666696369656e7420616c6c6f77616e6365000000600082015250565b6000611f70601d8361153b565b9150611f7b82611f3a565b602082019050919050565b60006020820190508181036000830152611f9f81611f63565b9050919050565b7f45524332303a207472616e736665722066726f6d20746865207a65726f20616460008201527f6472657373000000000000000000000000000000000000000000000000000000602082015250565b600061200260258361153b565b915061200d82611fa6565b604082019050919050565b6000602082019050818103600083015261203181611ff5565b9050919050565b7f45524332303a207472616e7366657220746f20746865207a65726f206164647260008201527f6573730000000000000000000000000000000000000000000000000000000000602082015250565b600061209460238361153b565b915061209f82612038565b604082019050919050565b600060208201905081810360008301526120c381612087565b9050919050565b7f45524332303a207472616e7366657220616d6f756e742065786365656473206260008201527f616c616e63650000000000000000000000000000000000000000000000000000602082015250565b600061212660268361153b565b9150612131826120ca565b604082019050919050565b6000602082019050818103600083015261215581612119565b9050919050565b7f45524332303a206d696e7420746f20746865207a65726f206164647265737300600082015250565b6000612192601f8361153b565b915061219d8261215c565b602082019050919050565b600060208201905081810360008301526121c181612185565b905091905056fea264697066735822122098527ad59db72072974f6174e729e3aa9f12b6601abe4820802ef3a07b21a7c564736f6c634300080d0033",
  "linkReferences": {},
  "deployedLinkReferences": {}
}